{
  "_format": "hh-sol-artifact-1",
  "contractName": "AgeCheck",
  "sourceName": "contracts/AgeCheck.sol",
  "abi": [
    {
      "inputs": [
        {
          "internalType": "address",
          "name": "_verifier",
          "type": "address"
        },
        {
          "internalType": "address",
          "name": "_plonkVerifier",
          "type": "address"
        }
      ],
      "stateMutability": "nonpayable",
      "type": "constructor"
    },
    {
      "anonymous": false,
      "inputs": [
        {
          "indexed": true,
          "internalType": "address",
          "name": "person",
          "type": "address"
        },
        {
          "indexed": true,
          "internalType": "bool",
          "name": "verfied",
          "type": "bool"
        }
      ],
      "name": "AgeVerfied",
      "type": "event"
    },
    {
      "inputs": [
        {
          "internalType": "address",
          "name": "",
          "type": "address"
        }
      ],
      "name": "addressMapping",
      "outputs": [
        {
          "internalType": "bool",
          "name": "",
          "type": "bool"
        }
      ],
      "stateMutability": "view",
      "type": "function"
    },
    {
      "inputs": [
        {
          "internalType": "address",
          "name": "_user",
          "type": "address"
        }
      ],
      "name": "getVerficationStatus",
      "outputs": [
        {
          "internalType": "bool",
          "name": "",
          "type": "bool"
        }
      ],
      "stateMutability": "view",
      "type": "function"
    },
    {
      "inputs": [
        {
          "internalType": "bool",
          "name": "_status",
          "type": "bool"
        }
      ],
      "name": "setVerficationStatus",
      "outputs": [],
      "stateMutability": "nonpayable",
      "type": "function"
    },
    {
      "inputs": [
        {
          "internalType": "uint256[8]",
          "name": "_proof",
          "type": "uint256[8]"
        },
        {
          "internalType": "uint256[2]",
          "name": "_input",
          "type": "uint256[2]"
        }
      ],
      "name": "verifyUsingGroth",
      "outputs": [],
      "stateMutability": "nonpayable",
      "type": "function"
    },
    {
      "inputs": [
        {
          "internalType": "bytes",
          "name": "_proof",
          "type": "bytes"
        },
        {
          "internalType": "uint256[]",
          "name": "_pubSignals",
          "type": "uint256[]"
        }
      ],
      "name": "verifyUsingPlonk",
      "outputs": [],
      "stateMutability": "nonpayable",
      "type": "function"
    }
  ],
  "bytecode": "0x608060405234801561001057600080fd5b50604051610f95380380610f95833981810160405281019061003291906100cf565b816000806101000a81548173ffffffffffffffffffffffffffffffffffffffff021916908373ffffffffffffffffffffffffffffffffffffffff16021790555080600160006101000a81548173ffffffffffffffffffffffffffffffffffffffff021916908373ffffffffffffffffffffffffffffffffffffffff1602179055505050610154565b6000815190506100c98161013d565b92915050565b600080604083850312156100e257600080fd5b60006100f0858286016100ba565b9250506020610101858286016100ba565b9150509250929050565b60006101168261011d565b9050919050565b600073ffffffffffffffffffffffffffffffffffffffff82169050919050565b6101468161010b565b811461015157600080fd5b50565b610e32806101636000396000f3fe608060405234801561001057600080fd5b50600436106100575760003560e01c80630494cd9a1461005c578063589bd2941461008c578063b2f36f94146100a8578063b911a906146100c4578063bb0da039146100e0575b600080fd5b610076600480360381019061007191906108af565b610110565b6040516100839190610c2f565b60405180910390f35b6100a660048036038101906100a19190610968565b610130565b005b6100c260048036038101906100bd9190610916565b6102c5565b005b6100de60048036038101906100d991906108d8565b610365565b005b6100fa60048036038101906100f591906108af565b61074a565b6040516101079190610c2f565b60405180910390f35b60026020528060005260406000206000915054906101000a900460ff1681565b600160009054906101000a900473ffffffffffffffffffffffffffffffffffffffff1673ffffffffffffffffffffffffffffffffffffffff16631e8e1e13858585856040518563ffffffff1660e01b81526004016101919493929190610c4a565b60206040518083038186803b1580156101a957600080fd5b505afa1580156101bd573d6000803e3d6000fd5b505050506040513d601f19601f820116820180604052508101906101e1919061093f565b610220576040517f08c379a000000000000000000000000000000000000000000000000000000000815260040161021790610c85565b60405180910390fd5b6001600260003373ffffffffffffffffffffffffffffffffffffffff1673ffffffffffffffffffffffffffffffffffffffff16815260200190815260200160002060006101000a81548160ff021916908315150217905550600115153373ffffffffffffffffffffffffffffffffffffffff167fdc37acb7f25e80e6f2050d7947f0fa8be27cd3905c648b8184ab808f032f29f960405160405180910390a350505050565b80600260003373ffffffffffffffffffffffffffffffffffffffff1673ffffffffffffffffffffffffffffffffffffffff16815260200190815260200160002060006101000a81548160ff0219169083151502179055508015153373ffffffffffffffffffffffffffffffffffffffff167fdc37acb7f25e80e6f2050d7947f0fa8be27cd3905c648b8184ab808f032f29f960405160405180910390a350565b60008054906101000a900473ffffffffffffffffffffffffffffffffffffffff1673ffffffffffffffffffffffffffffffffffffffff1663f5c9d69e6040518060400160405280856000600881106103e6577f4e487b7100000000000000000000000000000000000000000000000000000000600052603260045260246000fd5b602002013581526020018560016008811061042a577f4e487b7100000000000000000000000000000000000000000000000000000000600052603260045260246000fd5b60200201358152506040518060400160405280604051806040016040528088600260088110610482577f4e487b7100000000000000000000000000000000000000000000000000000000600052603260045260246000fd5b60200201358152602001886003600881106104c6577f4e487b7100000000000000000000000000000000000000000000000000000000600052603260045260246000fd5b60200201358152508152602001604051806040016040528088600460088110610518577f4e487b7100000000000000000000000000000000000000000000000000000000600052603260045260246000fd5b602002013581526020018860056008811061055c577f4e487b7100000000000000000000000000000000000000000000000000000000600052603260045260246000fd5b60200201358152508152506040518060400160405280876006600881106105ac577f4e487b7100000000000000000000000000000000000000000000000000000000600052603260045260246000fd5b60200201358152602001876007600881106105f0577f4e487b7100000000000000000000000000000000000000000000000000000000600052603260045260246000fd5b6020020135815250856040518563ffffffff1660e01b81526004016106189493929190610be8565b60206040518083038186803b15801561063057600080fd5b505afa158015610644573d6000803e3d6000fd5b505050506040513d601f19601f82011682018060405250810190610668919061093f565b6106a7576040517f08c379a000000000000000000000000000000000000000000000000000000000815260040161069e90610c85565b60405180910390fd5b6001600260003373ffffffffffffffffffffffffffffffffffffffff1673ffffffffffffffffffffffffffffffffffffffff16815260200190815260200160002060006101000a81548160ff021916908315150217905550600115153373ffffffffffffffffffffffffffffffffffffffff167fdc37acb7f25e80e6f2050d7947f0fa8be27cd3905c648b8184ab808f032f29f960405160405180910390a35050565b6000600260008373ffffffffffffffffffffffffffffffffffffffff1673ffffffffffffffffffffffffffffffffffffffff16815260200190815260200160002060009054906101000a900460ff169050919050565b6000813590506107af81610dce565b92915050565b6000819050826020600202820111156107cd57600080fd5b92915050565b6000819050826020600802820111156107eb57600080fd5b92915050565b60008083601f84011261080357600080fd5b8235905067ffffffffffffffff81111561081c57600080fd5b60208301915083602082028301111561083457600080fd5b9250929050565b60008135905061084a81610de5565b92915050565b60008151905061085f81610de5565b92915050565b60008083601f84011261087757600080fd5b8235905067ffffffffffffffff81111561089057600080fd5b6020830191508360018202830111156108a857600080fd5b9250929050565b6000602082840312156108c157600080fd5b60006108cf848285016107a0565b91505092915050565b60008061014083850312156108ec57600080fd5b60006108fa858286016107d3565b92505061010061090c858286016107b5565b9150509250929050565b60006020828403121561092857600080fd5b60006109368482850161083b565b91505092915050565b60006020828403121561095157600080fd5b600061095f84828501610850565b91505092915050565b6000806000806040858703121561097e57600080fd5b600085013567ffffffffffffffff81111561099857600080fd5b6109a487828801610865565b9450945050602085013567ffffffffffffffff8111156109c357600080fd5b6109cf878288016107f1565b925092505092959194509250565b60006109e98383610a74565b60408301905092915050565b6000610a018383610bd9565b60208301905092915050565b610a1681610cb9565b610a208184610ce9565b9250610a2b82610ca5565b8060005b83811015610a5c578151610a4387826109dd565b9650610a4e83610ccf565b925050600181019050610a2f565b505050505050565b610a7060408383610d85565b5050565b610a7d81610cc4565b610a878184610cf4565b9250610a9282610caf565b8060005b83811015610ac3578151610aaa87826109f5565b9650610ab583610cdc565b925050600181019050610a96565b505050505050565b610ad481610cc4565b610ade8184610cff565b9250610ae982610caf565b8060005b83811015610b1a578151610b0187826109f5565b9650610b0c83610cdc565b925050600181019050610aed565b505050505050565b6000610b2e8385610d0a565b93507f07ffffffffffffffffffffffffffffffffffffffffffffffffffffffffffffff831115610b5d57600080fd5b602083029250610b6e838584610d85565b82840190509392505050565b610b8381610d4f565b82525050565b6000610b958385610d1b565b9350610ba2838584610d85565b610bab83610d94565b840190509392505050565b6000610bc3600f83610d2c565b9150610bce82610da5565b602082019050919050565b610be281610d7b565b82525050565b600061014082019050610bfe6000830187610acb565b610c0b6040830186610a0d565b610c1860c0830185610acb565b610c26610100830184610a64565b95945050505050565b6000602082019050610c446000830184610b7a565b92915050565b60006040820190508181036000830152610c65818688610b89565b90508181036020830152610c7a818486610b22565b905095945050505050565b60006020820190508181036000830152610c9e81610bb6565b9050919050565b6000819050919050565b6000819050919050565b600060029050919050565b600060029050919050565b6000602082019050919050565b6000602082019050919050565b600081905092915050565b600081905092915050565b600081905092915050565b600082825260208201905092915050565b600082825260208201905092915050565b600082825260208201905092915050565b6000610d4882610d5b565b9050919050565b60008115159050919050565b600073ffffffffffffffffffffffffffffffffffffffff82169050919050565b6000819050919050565b82818337600083830152505050565b6000601f19601f8301169050919050565b7f42656c6f7720416765206c696d69740000000000000000000000000000000000600082015250565b610dd781610d3d565b8114610de257600080fd5b50565b610dee81610d4f565b8114610df957600080fd5b5056fea26469706673582212204f5d155cb2143992718fc08a3f80e8f2a16de88a2ffafcac01624408a94a9bad64736f6c63430008040033",
  "linkReferences": {},
  "deployedLinkReferences": {}
}