{
  "_format": "hh-sol-artifact-1",
  "contractName": "Voting",
  "sourceName": "contracts/Voting.sol",
  "abi": [
    {
      "inputs": [
        {
          "internalType": "address",
          "name": "_verifier",
          "type": "address"
        }
      ],
      "stateMutability": "nonpayable",
      "type": "constructor"
    },
    {
      "anonymous": false,
      "inputs": [
        {
          "indexed": true,
          "internalType": "address",
          "name": "",
          "type": "address"
        },
        {
          "indexed": true,
          "internalType": "uint256",
          "name": "",
          "type": "uint256"
        }
      ],
      "name": "CommitmentRegistered",
      "type": "event"
    },
    {
      "anonymous": false,
      "inputs": [
        {
          "indexed": true,
          "internalType": "uint256",
          "name": "",
          "type": "uint256"
        },
        {
          "indexed": true,
          "internalType": "address",
          "name": "",
          "type": "address"
        }
      ],
      "name": "PollCreated",
      "type": "event"
    },
    {
      "anonymous": false,
      "inputs": [
        {
          "indexed": true,
          "internalType": "uint256",
          "name": "",
          "type": "uint256"
        },
        {
          "indexed": true,
          "internalType": "address",
          "name": "",
          "type": "address"
        }
      ],
      "name": "PollEnded",
      "type": "event"
    },
    {
      "anonymous": false,
      "inputs": [
        {
          "indexed": true,
          "internalType": "uint256",
          "name": "",
          "type": "uint256"
        },
        {
          "indexed": true,
          "internalType": "address",
          "name": "",
          "type": "address"
        }
      ],
      "name": "PollStarted",
      "type": "event"
    },
    {
      "anonymous": false,
      "inputs": [
        {
          "indexed": true,
          "internalType": "uint256",
          "name": "",
          "type": "uint256"
        },
        {
          "indexed": true,
          "internalType": "uint256",
          "name": "",
          "type": "uint256"
        }
      ],
      "name": "Voted",
      "type": "event"
    },
    {
      "inputs": [
        {
          "internalType": "uint256",
          "name": "_vote",
          "type": "uint256"
        },
        {
          "internalType": "uint256",
          "name": "_nullifierHash",
          "type": "uint256"
        },
        {
          "internalType": "uint256",
          "name": "_pollId",
          "type": "uint256"
        },
        {
          "internalType": "uint256[8]",
          "name": "_proof",
          "type": "uint256[8]"
        },
        {
          "internalType": "uint256[4]",
          "name": "_input",
          "type": "uint256[4]"
        }
      ],
      "name": "castVote",
      "outputs": [],
      "stateMutability": "nonpayable",
      "type": "function"
    },
    {
      "inputs": [],
      "name": "commitmentTree",
      "outputs": [
        {
          "internalType": "uint8",
          "name": "depth",
          "type": "uint8"
        },
        {
          "internalType": "uint256",
          "name": "root",
          "type": "uint256"
        },
        {
          "internalType": "uint256",
          "name": "numberOfLeaves",
          "type": "uint256"
        }
      ],
      "stateMutability": "view",
      "type": "function"
    },
    {
      "inputs": [
        {
          "internalType": "uint256",
          "name": "_identityCommitment",
          "type": "uint256"
        },
        {
          "internalType": "string",
          "name": "_title",
          "type": "string"
        },
        {
          "internalType": "uint256",
          "name": "_quorum",
          "type": "uint256"
        }
      ],
      "name": "createPoll",
      "outputs": [],
      "stateMutability": "nonpayable",
      "type": "function"
    },
    {
      "inputs": [
        {
          "internalType": "uint256",
          "name": "pollId",
          "type": "uint256"
        }
      ],
      "name": "endPoll",
      "outputs": [],
      "stateMutability": "nonpayable",
      "type": "function"
    },
    {
      "inputs": [],
      "name": "getAllPolls",
      "outputs": [
        {
          "components": [
            {
              "internalType": "uint256",
              "name": "pollId",
              "type": "uint256"
            },
            {
              "internalType": "enum Voting.PollStatus",
              "name": "pollStatus",
              "type": "uint8"
            },
            {
              "internalType": "string",
              "name": "title",
              "type": "string"
            },
            {
              "internalType": "address",
              "name": "creator",
              "type": "address"
            },
            {
              "internalType": "uint256",
              "name": "quorum",
              "type": "uint256"
            },
            {
              "internalType": "uint256[]",
              "name": "votes",
              "type": "uint256[]"
            },
            {
              "internalType": "uint256",
              "name": "createdAt",
              "type": "uint256"
            }
          ],
          "internalType": "struct Voting.Poll[]",
          "name": "",
          "type": "tuple[]"
        }
      ],
      "stateMutability": "view",
      "type": "function"
    },
    {
      "inputs": [
        {
          "internalType": "uint256",
          "name": "_pollId",
          "type": "uint256"
        }
      ],
      "name": "getPollDetailsById",
      "outputs": [
        {
          "components": [
            {
              "internalType": "uint256",
              "name": "pollId",
              "type": "uint256"
            },
            {
              "internalType": "enum Voting.PollStatus",
              "name": "pollStatus",
              "type": "uint8"
            },
            {
              "internalType": "string",
              "name": "title",
              "type": "string"
            },
            {
              "internalType": "address",
              "name": "creator",
              "type": "address"
            },
            {
              "internalType": "uint256",
              "name": "quorum",
              "type": "uint256"
            },
            {
              "internalType": "uint256[]",
              "name": "votes",
              "type": "uint256[]"
            },
            {
              "internalType": "uint256",
              "name": "createdAt",
              "type": "uint256"
            }
          ],
          "internalType": "struct Voting.Poll",
          "name": "",
          "type": "tuple"
        }
      ],
      "stateMutability": "view",
      "type": "function"
    },
    {
      "inputs": [],
      "name": "getPolls",
      "outputs": [
        {
          "internalType": "uint256[]",
          "name": "",
          "type": "uint256[]"
        }
      ],
      "stateMutability": "view",
      "type": "function"
    },
    {
      "inputs": [],
      "name": "getRegisteredCommitments",
      "outputs": [
        {
          "internalType": "uint256[]",
          "name": "",
          "type": "uint256[]"
        }
      ],
      "stateMutability": "view",
      "type": "function"
    },
    {
      "inputs": [
        {
          "internalType": "uint256",
          "name": "",
          "type": "uint256"
        }
      ],
      "name": "nullifierHashes",
      "outputs": [
        {
          "internalType": "bool",
          "name": "",
          "type": "bool"
        }
      ],
      "stateMutability": "view",
      "type": "function"
    },
    {
      "inputs": [],
      "name": "pollIdCounter",
      "outputs": [
        {
          "internalType": "uint256",
          "name": "",
          "type": "uint256"
        }
      ],
      "stateMutability": "view",
      "type": "function"
    },
    {
      "inputs": [
        {
          "internalType": "uint256",
          "name": "",
          "type": "uint256"
        }
      ],
      "name": "pollIds",
      "outputs": [
        {
          "internalType": "uint256",
          "name": "",
          "type": "uint256"
        }
      ],
      "stateMutability": "view",
      "type": "function"
    },
    {
      "inputs": [
        {
          "internalType": "uint256",
          "name": "",
          "type": "uint256"
        }
      ],
      "name": "polls",
      "outputs": [
        {
          "internalType": "uint256",
          "name": "pollId",
          "type": "uint256"
        },
        {
          "internalType": "enum Voting.PollStatus",
          "name": "pollStatus",
          "type": "uint8"
        },
        {
          "internalType": "string",
          "name": "title",
          "type": "string"
        },
        {
          "internalType": "address",
          "name": "creator",
          "type": "address"
        },
        {
          "internalType": "uint256",
          "name": "quorum",
          "type": "uint256"
        },
        {
          "internalType": "uint256",
          "name": "createdAt",
          "type": "uint256"
        }
      ],
      "stateMutability": "view",
      "type": "function"
    },
    {
      "inputs": [
        {
          "internalType": "uint256",
          "name": "",
          "type": "uint256"
        }
      ],
      "name": "registeredCommitments",
      "outputs": [
        {
          "internalType": "uint256",
          "name": "",
          "type": "uint256"
        }
      ],
      "stateMutability": "view",
      "type": "function"
    },
    {
      "inputs": [
        {
          "internalType": "uint256",
          "name": "",
          "type": "uint256"
        }
      ],
      "name": "registeredCommitmentsMapping",
      "outputs": [
        {
          "internalType": "bool",
          "name": "",
          "type": "bool"
        }
      ],
      "stateMutability": "view",
      "type": "function"
    },
    {
      "inputs": [
        {
          "internalType": "uint256",
          "name": "_identityCommitment",
          "type": "uint256"
        }
      ],
      "name": "regsiterCommitment",
      "outputs": [],
      "stateMutability": "nonpayable",
      "type": "function"
    },
    {
      "inputs": [
        {
          "internalType": "uint256",
          "name": "pollId",
          "type": "uint256"
        }
      ],
      "name": "startPoll",
      "outputs": [],
      "stateMutability": "nonpayable",
      "type": "function"
    }
  ],
  "bytecode": "0x60806040523480156200001157600080fd5b5060405162002cf338038062002cf383398181016040528101906200003791906200015f565b600773__$4c2cba6680386d05354b71d5a44411cc21$__63b4bdd117909160147f30644e72e131a029b85045b68181585d2833e84879b9709143e1f593f00000016040516020016200008990620001db565b6040516020818303038152906040528051906020012060001c620000ae919062000285565b6040518463ffffffff1660e01b8152600401620000ce93929190620001f2565b60006040518083038186803b158015620000e757600080fd5b505af4158015620000fc573d6000803e3d6000fd5b5050505080600c60006101000a81548173ffffffffffffffffffffffffffffffffffffffff021916908373ffffffffffffffffffffffffffffffffffffffff160217905550506200032f565b600081519050620001598162000315565b92915050565b6000602082840312156200017257600080fd5b6000620001828482850162000148565b91505092915050565b60006200019a6009836200022f565b9150620001a782620002ec565b600982019050919050565b8082525050565b620001c4816200026e565b82525050565b620001d58162000278565b82525050565b6000620001e8826200018b565b9150819050919050565b6000606082019050620002096000830186620001b2565b620002186020830185620001ca565b620002276040830184620001b9565b949350505050565b600081905092915050565b600062000247826200024e565b9050919050565b600073ffffffffffffffffffffffffffffffffffffffff82169050919050565b6000819050919050565b600060ff82169050919050565b600062000292826200026e565b91506200029f836200026e565b925082620002b257620002b1620002bd565b5b828206905092915050565b7f4e487b7100000000000000000000000000000000000000000000000000000000600052601260045260246000fd5b7f53656d6170686f72650000000000000000000000000000000000000000000000600082015250565b62000320816200023a565b81146200032c57600080fd5b50565b6129b4806200033f6000396000f3fe608060405234801561001057600080fd5b50600436106101005760003560e01c80635bc2321b11610097578063c34a002b11610066578063c34a002b146102c8578063d5cf5a39146102e6578063d645a32114610302578063f43b87781461033257610100565b80635bc2321b1461021557806373a5c08d14610245578063a022153514610275578063ac2f00741461029357610100565b80632430c221116100d35780632430c2211461019f57806332b633fa146101bb5780633e073943146101d957806345b2a6a1146101f557610100565b8063120fe89b146101055780631f79a1e914610123578063235a0b9b14610153578063236e1b9314610183575b600080fd5b61010d61034e565b60405161011a9190612205565b60405180910390f35b61013d60048036038101906101389190611ace565b6103a6565b60405161014a9190612227565b60405180910390f35b61016d60048036038101906101689190611ace565b6103c6565b60405161017a919061236d565b60405180910390f35b61019d60048036038101906101989190611af7565b6103ea565b005b6101b960048036038101906101b49190611ace565b6106ce565b005b6101c36108f6565b6040516101d0919061219c565b60405180910390f35b6101f360048036038101906101ee9190611ace565b610be8565b005b6101fd610d57565b60405161020c939291906123f0565b60405180910390f35b61022f600480360381019061022a9190611ace565b610d7c565b60405161023c919061234b565b60405180910390f35b61025f600480360381019061025a9190611ace565b610f8e565b60405161026c919061236d565b60405180910390f35b61027d610fb2565b60405161028a919061236d565b60405180910390f35b6102ad60048036038101906102a89190611ace565b610fb8565b6040516102bf96959493929190612388565b60405180910390f35b6102d06110a9565b6040516102dd9190612205565b60405180910390f35b61030060048036038101906102fb9190611b5e565b611101565b005b61031c60048036038101906103179190611ace565b611614565b6040516103299190612227565b60405180910390f35b61034c60048036038101906103479190611ace565b611634565b005b6060600280548060200260200160405190810160405280929190818152602001828054801561039c57602002820191906000526020600020905b815481526020019060010190808311610388575b5050505050905090565b60066020528060005260406000206000915054906101000a900460ff1681565b600581815481106103d657600080fd5b906000526020600020016000915090505481565b6004600084815260200190815260200160002060009054906101000a900460ff1661044a576040517f08c379a0000000000000000000000000000000000000000000000000000000008152600401610441906122c2565b60405180910390fd5b61045261185c565b33816060019073ffffffffffffffffffffffffffffffffffffffff16908173ffffffffffffffffffffffffffffffffffffffff168152505060015481600001818152505082816040018190525081816080018181525050428160c00181815250506000816020019060028111156104f2577f4e487b7100000000000000000000000000000000000000000000000000000000600052602160045260246000fd5b9081600281111561052c577f4e487b7100000000000000000000000000000000000000000000000000000000600052602160045260246000fd5b81525050806003600060015481526020019081526020016000206000820151816000015560208201518160010160006101000a81548160ff021916908360028111156105a1577f4e487b7100000000000000000000000000000000000000000000000000000000600052602160045260246000fd5b021790555060408201518160020190805190602001906105c29291906118e7565b5060608201518160030160006101000a81548173ffffffffffffffffffffffffffffffffffffffff021916908373ffffffffffffffffffffffffffffffffffffffff1602179055506080820151816004015560a082015181600501908051906020019061063092919061196d565b5060c0820151816006015590505060026001549080600181540180825580915050600190039060005260206000200160009091909190915055600180600082825461067b9190612592565b925050819055503373ffffffffffffffffffffffffffffffffffffffff166001547fb447d309fd3b1a27466cdb08ccc02ee5188e9c71fc58af042bafe3e0bb45123060405160405180910390a350505050565b803373ffffffffffffffffffffffffffffffffffffffff166003600083815260200190815260200160002060030160009054906101000a900473ffffffffffffffffffffffffffffffffffffffff1673ffffffffffffffffffffffffffffffffffffffff1614610773576040517f08c379a000000000000000000000000000000000000000000000000000000000815260040161076a90612282565b60405180910390fd5b600060028111156107ad577f4e487b7100000000000000000000000000000000000000000000000000000000600052602160045260246000fd5b6003600084815260200190815260200160002060010160009054906101000a900460ff166002811115610809577f4e487b7100000000000000000000000000000000000000000000000000000000600052602160045260246000fd5b14610849576040517f08c379a000000000000000000000000000000000000000000000000000000000815260040161084090612302565b60405180910390fd5b60016003600084815260200190815260200160002060010160006101000a81548160ff021916908360028111156108a9577f4e487b7100000000000000000000000000000000000000000000000000000000600052602160045260246000fd5b02179055503373ffffffffffffffffffffffffffffffffffffffff16827f2ee249e80f49d04a4beade589f2f9f21eef3aeda8f13fab333d1ab92b4869e3a60405160405180910390a35050565b6060600060028054905067ffffffffffffffff81111561093f577f4e487b7100000000000000000000000000000000000000000000000000000000600052604160045260246000fd5b60405190808252806020026020018201604052801561097857816020015b61096561185c565b81526020019060019003908161095d5790505b50905060005b600154811015610be057600360008281526020019081526020016000206040518060e0016040529081600082015481526020016001820160009054906101000a900460ff1660028111156109fb577f4e487b7100000000000000000000000000000000000000000000000000000000600052602160045260246000fd5b6002811115610a33577f4e487b7100000000000000000000000000000000000000000000000000000000600052602160045260246000fd5b8152602001600282018054610a47906126a4565b80601f0160208091040260200160405190810160405280929190818152602001828054610a73906126a4565b8015610ac05780601f10610a9557610100808354040283529160200191610ac0565b820191906000526020600020905b815481529060010190602001808311610aa357829003601f168201915b505050505081526020016003820160009054906101000a900473ffffffffffffffffffffffffffffffffffffffff1673ffffffffffffffffffffffffffffffffffffffff1673ffffffffffffffffffffffffffffffffffffffff1681526020016004820154815260200160058201805480602002602001604051908101604052809291908181526020018280548015610b7857602002820191906000526020600020905b815481526020019060010190808311610b64575b50505050508152602001600682015481525050828281518110610bc4577f4e487b7100000000000000000000000000000000000000000000000000000000600052603260045260246000fd5b602002602001018190525080610bd990612707565b905061097e565b508091505090565b600015156004600083815260200190815260200160002060009054906101000a900460ff16151514610c4f576040517f08c379a0000000000000000000000000000000000000000000000000000000008152600401610c4690612242565b60405180910390fd5b60016004600083815260200190815260200160002060006101000a81548160ff021916908315150217905550600773__$4c2cba6680386d05354b71d5a44411cc21$__63168703fa9091836040518363ffffffff1660e01b8152600401610cb7929190612322565b60006040518083038186803b158015610ccf57600080fd5b505af4158015610ce3573d6000803e3d6000fd5b505050506005819080600181540180825580915050600190039060005260206000200160009091909190915055803373ffffffffffffffffffffffffffffffffffffffff167f62d7a5b890fbbb091c9fcff51f252db2ac6b776d49c5c9c0a05ed2eb56e937c560405160405180910390a350565b60078060000160009054906101000a900460ff16908060010154908060020154905083565b610d8461185c565b600360008381526020019081526020016000206040518060e0016040529081600082015481526020016001820160009054906101000a900460ff166002811115610df7577f4e487b7100000000000000000000000000000000000000000000000000000000600052602160045260246000fd5b6002811115610e2f577f4e487b7100000000000000000000000000000000000000000000000000000000600052602160045260246000fd5b8152602001600282018054610e43906126a4565b80601f0160208091040260200160405190810160405280929190818152602001828054610e6f906126a4565b8015610ebc5780601f10610e9157610100808354040283529160200191610ebc565b820191906000526020600020905b815481529060010190602001808311610e9f57829003601f168201915b505050505081526020016003820160009054906101000a900473ffffffffffffffffffffffffffffffffffffffff1673ffffffffffffffffffffffffffffffffffffffff1673ffffffffffffffffffffffffffffffffffffffff1681526020016004820154815260200160058201805480602002602001604051908101604052809291908181526020018280548015610f7457602002820191906000526020600020905b815481526020019060010190808311610f60575b505050505081526020016006820154815250509050919050565b60028181548110610f9e57600080fd5b906000526020600020016000915090505481565b60015481565b60036020528060005260406000206000915090508060000154908060010160009054906101000a900460ff1690806002018054610ff4906126a4565b80601f0160208091040260200160405190810160405280929190818152602001828054611020906126a4565b801561106d5780601f106110425761010080835404028352916020019161106d565b820191906000526020600020905b81548152906001019060200180831161105057829003601f168201915b5050505050908060030160009054906101000a900473ffffffffffffffffffffffffffffffffffffffff16908060040154908060060154905086565b606060058054806020026020016040519081016040528092919081815260200182805480156110f757602002820191906000526020600020905b8154815260200190600101908083116110e3575b5050505050905090565b600060036000858152602001908152602001600020905060016002811115611152577f4e487b7100000000000000000000000000000000000000000000000000000000600052602160045260246000fd5b8160010160009054906101000a900460ff16600281111561119c577f4e487b7100000000000000000000000000000000000000000000000000000000600052602160045260246000fd5b146111dc576040517f08c379a00000000000000000000000000000000000000000000000000000000081526004016111d390612262565b60405180910390fd5b600015156006600087815260200190815260200160002060009054906101000a900460ff16151514611243576040517f08c379a000000000000000000000000000000000000000000000000000000000815260040161123a906122a2565b60405180910390fd5b600c60009054906101000a900473ffffffffffffffffffffffffffffffffffffffff1673ffffffffffffffffffffffffffffffffffffffff16635fe8c13b6040518060400160405280866000600881106112c6577f4e487b7100000000000000000000000000000000000000000000000000000000600052603260045260246000fd5b602002013581526020018660016008811061130a577f4e487b7100000000000000000000000000000000000000000000000000000000600052603260045260246000fd5b60200201358152506040518060400160405280604051806040016040528089600260088110611362577f4e487b7100000000000000000000000000000000000000000000000000000000600052603260045260246000fd5b60200201358152602001896003600881106113a6577f4e487b7100000000000000000000000000000000000000000000000000000000600052603260045260246000fd5b602002013581525081526020016040518060400160405280896004600881106113f8577f4e487b7100000000000000000000000000000000000000000000000000000000600052603260045260246000fd5b602002013581526020018960056008811061143c577f4e487b7100000000000000000000000000000000000000000000000000000000600052603260045260246000fd5b602002013581525081525060405180604001604052808860066008811061148c577f4e487b7100000000000000000000000000000000000000000000000000000000600052603260045260246000fd5b60200201358152602001886007600881106114d0577f4e487b7100000000000000000000000000000000000000000000000000000000600052603260045260246000fd5b6020020135815250866040518563ffffffff1660e01b81526004016114f894939291906121be565b60206040518083038186803b15801561151057600080fd5b505afa158015611524573d6000803e3d6000fd5b505050506040513d601f19601f820116820180604052508101906115489190611aa5565b611587576040517f08c379a000000000000000000000000000000000000000000000000000000000815260040161157e906122e2565b60405180910390fd5b60016006600087815260200190815260200160002060006101000a81548160ff0219169083151502179055508060050186908060018154018082558091505060019003906000526020600020016000909190919091505585847f84a5508ca0d85b42a876e75a9126f3ae7b43617ce60b170bf8805d34630bc65460405160405180910390a3505050505050565b60046020528060005260406000206000915054906101000a900460ff1681565b803373ffffffffffffffffffffffffffffffffffffffff166003600083815260200190815260200160002060030160009054906101000a900473ffffffffffffffffffffffffffffffffffffffff1673ffffffffffffffffffffffffffffffffffffffff16146116d9576040517f08c379a00000000000000000000000000000000000000000000000000000000081526004016116d090612282565b60405180910390fd5b60016002811115611713577f4e487b7100000000000000000000000000000000000000000000000000000000600052602160045260246000fd5b6003600084815260200190815260200160002060010160009054906101000a900460ff16600281111561176f577f4e487b7100000000000000000000000000000000000000000000000000000000600052602160045260246000fd5b146117af576040517f08c379a00000000000000000000000000000000000000000000000000000000081526004016117a690612262565b60405180910390fd5b60026003600084815260200190815260200160002060010160006101000a81548160ff0219169083600281111561180f577f4e487b7100000000000000000000000000000000000000000000000000000000600052602160045260246000fd5b02179055503373ffffffffffffffffffffffffffffffffffffffff16827fce994ead15e72a77a86ddf3b0184783c61c9af7e3aae02d7c0bdf3b4268fa18860405160405180910390a35050565b6040518060e0016040528060008152602001600060028111156118a8577f4e487b7100000000000000000000000000000000000000000000000000000000600052602160045260246000fd5b815260200160608152602001600073ffffffffffffffffffffffffffffffffffffffff1681526020016000815260200160608152602001600081525090565b8280546118f3906126a4565b90600052602060002090601f016020900481019282611915576000855561195c565b82601f1061192e57805160ff191683800117855561195c565b8280016001018555821561195c579182015b8281111561195b578251825591602001919060010190611940565b5b50905061196991906119ba565b5090565b8280548282559060005260206000209081019282156119a9579160200282015b828111156119a857825182559160200191906001019061198d565b5b5090506119b691906119ba565b5090565b5b808211156119d35760008160009055506001016119bb565b5090565b60006119ea6119e58461244c565b612427565b905082815260208101848484011115611a0257600080fd5b611a0d848285612662565b509392505050565b600081905082602060040282011115611a2d57600080fd5b92915050565b600081905082602060080282011115611a4b57600080fd5b92915050565b600081519050611a6081612950565b92915050565b600082601f830112611a7757600080fd5b8135611a878482602086016119d7565b91505092915050565b600081359050611a9f81612967565b92915050565b600060208284031215611ab757600080fd5b6000611ac584828501611a51565b91505092915050565b600060208284031215611ae057600080fd5b6000611aee84828501611a90565b91505092915050565b600080600060608486031215611b0c57600080fd5b6000611b1a86828701611a90565b935050602084013567ffffffffffffffff811115611b3757600080fd5b611b4386828701611a66565b9250506040611b5486828701611a90565b9150509250925092565b60008060008060006101e08688031215611b7757600080fd5b6000611b8588828901611a90565b9550506020611b9688828901611a90565b9450506040611ba788828901611a90565b9350506060611bb888828901611a33565b925050610160611bca88828901611a15565b9150509295509295909350565b6000611be38383611d05565b60408301905092915050565b6000611bfb838361201a565b905092915050565b6000611c0f8383612160565b60208301905092915050565b611c24816125e8565b82525050565b611c33816125e8565b82525050565b611c42816124b1565b611c4c818461251c565b9250611c578261247d565b8060005b83811015611c88578151611c6f8782611bd7565b9650611c7a836124e8565b925050600181019050611c5b565b505050505050565b6000611c9b826124bc565b611ca58185612527565b935083602082028501611cb785612487565b8060005b85811015611cf35784840389528151611cd48582611bef565b9450611cdf836124f5565b925060208a01995050600181019050611cbb565b50829750879550505050505092915050565b611d0e816124c7565b611d188184612538565b9250611d2382612497565b8060005b83811015611d54578151611d3b8782611c03565b9650611d4683612502565b925050600181019050611d27565b505050505050565b611d65816124c7565b611d6f8184612543565b9250611d7a82612497565b8060005b83811015611dab578151611d928782611c03565b9650611d9d83612502565b925050600181019050611d7e565b505050505050565b611dbf60808383612662565b5050565b6000611dce826124d2565b611dd8818561254e565b9350611de3836124a1565b8060005b83811015611e14578151611dfb8882611c03565b9750611e068361250f565b925050600181019050611de7565b5085935050505092915050565b6000611e2c826124d2565b611e36818561255f565b9350611e41836124a1565b8060005b83811015611e72578151611e598882611c03565b9750611e648361250f565b925050600181019050611e45565b5085935050505092915050565b611e88816125fa565b82525050565b611e9781612650565b82525050565b611ea681612650565b82525050565b6000611eb7826124dd565b611ec18185612570565b9350611ed1818560208601612671565b611eda8161280c565b840191505092915050565b6000611ef0826124dd565b611efa8185612581565b9350611f0a818560208601612671565b611f138161280c565b840191505092915050565b6000611f2b601483612581565b9150611f368261281d565b602082019050919050565b6000611f4e601083612581565b9150611f5982612846565b602082019050919050565b6000611f71600b83612581565b9150611f7c8261286f565b602082019050919050565b6000611f94601183612581565b9150611f9f82612898565b602082019050919050565b6000611fb7600d83612581565b9150611fc2826128c1565b602082019050919050565b6000611fda600d83612581565b9150611fe5826128ea565b602082019050919050565b6000611ffd600c83612581565b915061200882612913565b602082019050919050565b8082525050565b600060e0830160008301516120326000860182612160565b5060208301516120456020860182611e8e565b506040830151848203604086015261205d8282611eac565b91505060608301516120726060860182611c1b565b5060808301516120856080860182612160565b5060a083015184820360a086015261209d8282611dc3565b91505060c08301516120b260c0860182612160565b508091505092915050565b600060e0830160008301516120d56000860182612160565b5060208301516120e86020860182611e8e565b50604083015184820360408601526121008282611eac565b91505060608301516121156060860182611c1b565b5060808301516121286080860182612160565b5060a083015184820360a08601526121408282611dc3565b91505060c083015161215560c0860182612160565b508091505092915050565b61216981612639565b82525050565b61217881612639565b82525050565b61218781612639565b82525050565b61219681612643565b82525050565b600060208201905081810360008301526121b68184611c90565b905092915050565b6000610180820190506121d46000830187611d5c565b6121e16040830186611c39565b6121ee60c0830185611d5c565b6121fc610100830184611db3565b95945050505050565b6000602082019050818103600083015261221f8184611e21565b905092915050565b600060208201905061223c6000830184611e7f565b92915050565b6000602082019050818103600083015261225b81611f1e565b9050919050565b6000602082019050818103600083015261227b81611f41565b9050919050565b6000602082019050818103600083015261229b81611f64565b9050919050565b600060208201905081810360008301526122bb81611f87565b9050919050565b600060208201905081810360008301526122db81611faa565b9050919050565b600060208201905081810360008301526122fb81611fcd565b9050919050565b6000602082019050818103600083015261231b81611ff0565b9050919050565b60006040820190506123376000830185612013565b612344602083018461217e565b9392505050565b6000602082019050818103600083015261236581846120bd565b905092915050565b6000602082019050612382600083018461216f565b92915050565b600060c08201905061239d600083018961216f565b6123aa6020830188611e9d565b81810360408301526123bc8187611ee5565b90506123cb6060830186611c2a565b6123d8608083018561216f565b6123e560a083018461216f565b979650505050505050565b6000606082019050612405600083018661218d565b612412602083018561216f565b61241f604083018461216f565b949350505050565b6000612431612442565b905061243d82826126d6565b919050565b6000604051905090565b600067ffffffffffffffff821115612467576124666127dd565b5b6124708261280c565b9050602081019050919050565b6000819050919050565b6000819050602082019050919050565b6000819050919050565b6000819050602082019050919050565b600060029050919050565b600081519050919050565b600060029050919050565b600081519050919050565b600081519050919050565b6000602082019050919050565b6000602082019050919050565b6000602082019050919050565b6000602082019050919050565b600081905092915050565b600082825260208201905092915050565b600081905092915050565b600081905092915050565b600082825260208201905092915050565b600082825260208201905092915050565b600082825260208201905092915050565b600082825260208201905092915050565b600061259d82612639565b91506125a883612639565b9250827fffffffffffffffffffffffffffffffffffffffffffffffffffffffffffffffff038211156125dd576125dc612750565b5b828201905092915050565b60006125f382612619565b9050919050565b60008115159050919050565b60008190506126148261293c565b919050565b600073ffffffffffffffffffffffffffffffffffffffff82169050919050565b6000819050919050565b600060ff82169050919050565b600061265b82612606565b9050919050565b82818337600083830152505050565b60005b8381101561268f578082015181840152602081019050612674565b8381111561269e576000848401525b50505050565b600060028204905060018216806126bc57607f821691505b602082108114156126d0576126cf6127ae565b5b50919050565b6126df8261280c565b810181811067ffffffffffffffff821117156126fe576126fd6127dd565b5b80604052505050565b600061271282612639565b91507fffffffffffffffffffffffffffffffffffffffffffffffffffffffffffffffff82141561274557612744612750565b5b600182019050919050565b7f4e487b7100000000000000000000000000000000000000000000000000000000600052601160045260246000fd5b7f4e487b7100000000000000000000000000000000000000000000000000000000600052602160045260246000fd5b7f4e487b7100000000000000000000000000000000000000000000000000000000600052602260045260246000fd5b7f4e487b7100000000000000000000000000000000000000000000000000000000600052604160045260246000fd5b6000601f19601f8301169050919050565b7f4475706c696361746520636f6d6d69746d656e74000000000000000000000000600082015250565b7f506f6c6c206e6f74207374617274656400000000000000000000000000000000600082015250565b7f4e6f742063726561746f72000000000000000000000000000000000000000000600082015250565b7f496e76616c6964206e756c6c6966696572000000000000000000000000000000600082015250565b7f4e6f20636f6d6d69746d656e7400000000000000000000000000000000000000600082015250565b7f496e76616c69642070726f6f6600000000000000000000000000000000000000600082015250565b7f43616e6e6f742073746172740000000000000000000000000000000000000000600082015250565b6003811061294d5761294c61277f565b5b50565b612959816125fa565b811461296457600080fd5b50565b61297081612639565b811461297b57600080fd5b5056fea26469706673582212204e824ae7674de908f974009c1c096477a0cb3cfba068499b1c0503563889f4d964736f6c63430008040033",
  "linkReferences": {
    "contracts/IncrementalBinaryTree.sol": {
      "IncrementalBinaryTree": [
        {
          "length": 20,
          "start": 59
        },
        {
          "length": 20,
          "start": 4030
        }
      ]
    }
  },
  "deployedLinkReferences": {
    "contracts/IncrementalBinaryTree.sol": {
      "IncrementalBinaryTree": [
        {
          "length": 20,
          "start": 3199
        }
      ]
    }
  }
}